:020000022000DC
:100000000D94FA000D9420010D9420010D9420010F
:100010000D9420010D9420010D9420010D942001D8
:100020000D9420010D9420010D9420010D942001C8
:100030000D9420010D9420010D9420010D942001B8
:100040000D9420010D9420010D9420010D942001A8
:100050000D9420010D9420010D9420010D94200198
:100060000D9420010D9420010D9420010D94200188
:100070000D9420010D9420010D9420010D94200178
:100080000D9420010D9420010D9420010D94200168
:100090000D9420010D9420010D9420010D94200158
:1000A0000D9420010D9420010D9420010D94200148
:1000B0000D9420010D9420010D9420010D94200138
:1000C0000D9420010D9420010D9420010D94200128
:1000D0000D9420010D9420010D9420010D94200118
:1000E0000D9420010D9420010D9420010D94200108
:1000F0000D9420010D9420010D9420010D942001F8
:100100000D9420010D9420010D9420010D942001E7
:100110000D9420010D9420010D9420010D942001D7
:100120000D9420010D9420010D9420010D942001C7
:100130000D9420010D9420010D9420010D942001B7
:100140000D9420010D9420010D9420010D942001A7
:100150000D9420010D9420010D9420010D94200197
:100160000D9420010D9420010D9420010D94200187
:100170000D9420010D9420010D9420010D94200177
:100180000D9420010D9420010D9420010D94200167
:100190000D9420010D9420010D9420010D94200157
:1001A0000D9420010D9420010D9420010D94200147
:1001B0000D9420010D9420010D9420010D94200137
:1001C0000D9420010D9420010D9420010D94200127
:1001D0000D9420010D9420010D9420010D94200117
:1001E0000D9420010D9420010D9420010D94200107
:1001F0000D94200111241FBECFEFDFE3DEBFCDBF82
:1002000001E00CBF18BE19BE1ABE1BBE10E2A0E072
:10021000B0E2EEEFFAE002E00BBF02C007900D92F1
:10022000A230B107D9F71BBE12E2A2E0B0E201C0D2
:100230001D92A331B107E1F70F9476040D947D056B
:100240000D940000E0E0F0E0099408958091002012
:10025000882319F48091A1080CC0813019F4809191
:10026000A10907C0823019F020E030E00BC0809176
:10027000B109282F30E085E0369527958A95E1F77A
:1002800021703070C901089590910020992339F4AC
:100290008093A00880E89EE30197F1F708959130DC
:1002A00019F48093A0090895923011F48093B00955
:1002B00008951F93182F0F942601892BE1F3812FA6
:1002C0000F9444011F9108951F93982F959595952C
:1002D00095959595905D8F708A301CF0182F195A5E
:1002E00002C0182F105D892F0F945901812F0F9490
:1002F00059011F91089580910020882319F480915D
:10030000A1080CC0813019F48091A10907C0823086
:1003100019F020E030E00AC08091B109282F33277E
:1003200027FD30952227330F221F3327C901089557
:1003300080910020882319F48091A00808958130CD
:1003400019F48091A0090895823011F080E0089599
:100350008091B0090895DF92EF92FF920F931F935F
:10036000CF93DF93D0900020E0900520F0900620FE
:100370000091072010910820C0E8D6E019C0DA01EA
:10038000C90161E1B695A795979587956A95D1F7CB
:1003900081709070A070B0700D2C04C0880F991FF0
:1003A000AA1FBB1F0A94D2F780958C8379018A011A
:1003B0000F947B01A80197012F5F3F4F4F4F5F4F75
:1003C000892BE9F2E0920520F092062000930720A5
:1003D000109308200F949801DF91CF911F910F91F6
:1003E000FF90EF90DF9008951F930F94AB01182FAB
:1003F0000F945901113614F0175503C010330CF047
:100400001053812F1F9108951F930F94F401182FFB
:100410000F94F4011295107F810F1F9108951F937F
:10042000182F03C00F94AB0111501123D9F71F915E
:1004300008951F93182F0F94AB01803251F484E17B
:100440000F945901812F0F94590180E10F945901A4
:100450000AC0809102208F5F80930220853019F4BA
:10046000E0E0F0E009941F9108950F94AB01803211
:1004700039F484E10F94590180E10F9459010895F2
:10048000809102208F5F80930220853019F4E0E094
:10049000F0E00994089520E43FE107C0F9013197A5
:1004A000F1F7615070408040904061157105810501
:1004B0009105A1F708958FEF8093B000E0E8F6E092
:1004C00098E3908B808384830895A0E8B6E09FEF43
:1004D00040E45FE11DC017969C93179720E030E041
:1004E00003C0FA013197F1F72F5F3F4F293C3105E7
:1004F000C1F717969C93179720E030E003C0FA01EC
:100500003197F1F72F5F3F4F293C3105C1F78150FB
:10051000882309F70895CF92DF92EF92FF920F930D
:100520001F93CF93DF9381E090E08093032090931B
:100530000420F89400910B2210910C22EBE0CE2EB7
:10054000E0E2DE2EC0910920D0910A20209709F028
:100550003FC080910B2080930D223AC0E12C7EEFAA
:10056000F72EEC22FD22CE15DF0531F482E2BE012A
:1005700040E050E00F94340582E00030180710F09E
:1005800000E012E0F601419151916F0183E2BE015A
:100590000F9434052296025010401016110694F361
:1005A000C70180509E4FC817D90730F084E2B701C9
:1005B00040E050E00F943405CE01A0E0B0E080931D
:1005C0000E2290930F22A0931022B093112203C009
:1005D000101611061CF2DF91CF911F910F91FF9021
:1005E000EF90DF90CF900895CF93DF93EC012091AF
:1005F000092030910A208091032090910420892BBA
:1006000079F0B90160707E7F2617370749F084E2E0
:1006100040E050E00F943405109203201092042023
:10062000C033D105F9F0C134D105B1F40F94AB0159
:10063000803811F482E003C0813821F481E00F9406
:10064000190251C1823811F480E1F9CF883911F4CF
:1006500083E0F5CF80E0F3CFC234D10531F484E1FB
:100660000F940F020F9435023EC1C534D10511F429
:1006700085E0F6CFC035D105A9F3C235D10591F398
:10068000C135D10569F40F94350280E49FE1FC0186
:100690003197F1F7FC013197F1F70197F1F70EC1AE
:1006A000C535D10549F50F94AB01809309200F940E
:1006B000AB0180930A200F94350220910E223091D5
:1006C0000F22409110225091112280910920909187
:1006D0000A20A0E0B0E0281739074A075B0709F4B1
:1006E00002C1DA01C9019170A070B0700097A10534
:1006F000B10509F4F8C0E6C0C436D10509F05DC003
:100700000F94AB0180930C220F94AB0180930B22CA
:10071000809112228E7F809312220F94AB01853438
:1007200029F480911222816080931222C0E0D0E0EF
:1007300007C00F94AB01FE01E55FFF4D808321965A
:1007400080910B2290910C22C817D90790F30F9437
:10075000AB01803209F0ABC08091122280FF29C02A
:100760008091092090910A20880F991F8093092079
:1007700090930A20C0E0D0E014C0FE01E55FFF4D79
:100780008091092090910A2060810F945A058091F0
:10079000092090910A2001968093092090930A20C5
:1007A000219680910B2290910C22C817D90728F32B
:1007B00002C00F948B0284E174C0C437D10509F0E4
:1007C0005FC00F94AB0180930C220F94AB01809318
:1007D0000B220F94AB0190E0853409F491E08091F5
:1007E00012228E7F892B8093122280FD0BC0E09114
:1007F0000920F0910A20309729F490910D228491DC
:100800009817F1F70F94AB01803209F06CC084E1C6
:100810000F945901C0E0D0E02BC08091122280FFDC
:1008200007C08091092090910A200F944A0514C0B6
:10083000E0910920F0910A2081FD02C084910CC052
:10084000CF01A0E0B0E080509040AF4FBF4F0BB65B
:10085000ABBFFC0187910BBE0F9459018091092019
:1008600090910A2001968093092090930A20219666
:1008700080910B2290910C22C817D90770F213C0F7
:10088000C537D10581F50F94AB01803281F484E145
:100890000F9459018EE10F94590187E90F94590182
:1008A0008CE40F94590180E10F9459011CC0809190
:1008B00002208F5F809302208530A9F4E0E0F0E011
:1008C000099411C01BBEB90160707E7F84E240E0D4
:1008D00050E00F94340510920E2210920F221092C5
:1008E000102210921122DF91CF910895EF92FF9282
:1008F0000F931F93000080915000826080935000FE
:100900008091510081FFFCCF80914000887F816001
:10091000E0E4F0E008ED04BF80831FEF1093B00027
:10092000A0E8EA2EA6E0FA2E08E3F701008B109368
:100930008006148383E00F9465021093B000E0EA10
:10094000F6E0008B8091A0068E7F8093A0068091B8
:10095000A406816084838091A0068D7F8093A00689
:100960008091A406826084838091A0068B7F80930F
:10097000A0068091A406846084838091A006877F6E
:100980008093A0068091A4068860848380EFF7019D
:1009900084838091A80680FF14C08091A80681FD01
:1009A00002C021E00FC08091A80682FD02C022E0B3
:1009B00009C08091A80683FDECCFE0E0F0E0099447
:1009C000E8CF20E02093002081E090E002C0880F73
:1009D000991F2A95E2F78095E0E8F6E08483E0E449
:1009E000F6E034E0328328E02183E0EAF8E08FEC9F
:1009F000868317828091A408806184838091A408F3
:100A00008860848393E09583A0E6B6E012963C93D9
:100A1000129711962C931197E0EAF9E021E22683D0
:100A200017828091A409806184838091A4098860E1
:100A30008483958380E412968C93129780E81196B4
:100A40008C93E0EBF9E0268317828091B4098061F2
:100A500084838091B4098860848395830F94AB016B
:100A600090E00F94F402FACF0F931F930F921F920E
:100A7000FB010A010091CF0100780038D9F380937F
:100A8000CA010DE900933400E8951F900F901F9163
:100A90000F91089503D0808199270895E0ECF1E04B
:100AA000378537FDFDCF348538603487FC01E05051
:100AB000F04F0895262FE0ECF1E0378537FDFDCFAC
:100AC0003485377F3487378531FF09C036E3328775
:100AD00038ED34BF31E03387378537FDFDCF33E361
:100AE0003287808391831282248325E3228728ED35
:0E0AF00031E024BF338701960895F894FFCFBC
:020AFE00FF00F7
:0400000320000000D9
:00000001FF
