:200000000D94FA000D9420010D9420010D9420010D9420010D9420010D9420010D942001F7
:200020000D9420010D9420010D9420010D9420010D9420010D9420010D9420010D942001B0
:200040000D9420010D9420010D9420010D9420010D9420010D9420010D9420010D94200190
:200060000D9420010D9420010D9420010D9420010D9420010D9420010D9420010D94200170
:200080000D9420010D9420010D9420010D9420010D9420010D9420010D9420010D94200150
:2000A0000D9420010D9420010D9420010D9420010D9420010D9420010D9420010D94200130
:2000C0000D9420010D9420010D9420010D9420010D9420010D9420010D9420010D94200110
:2000E0000D9420010D9420010D9420010D9420010D9420010D9420010D9420010D942001F0
:200100000D9420010D9420010D9420010D9420010D9420010D9420010D9420010D942001CF
:200120000D9420010D9420010D9420010D9420010D9420010D9420010D9420010D942001AF
:200140000D9420010D9420010D9420010D9420010D9420010D9420010D9420010D9420018F
:200160000D9420010D9420010D9420010D9420010D9420010D9420010D9420010D9420016F
:200180000D9420010D9420010D9420010D9420010D9420010D9420010D9420010D9420014F
:2001A0000D9420010D9420010D9420010D9420010D9420010D9420010D9420010D9420012F
:2001C0000D9420010D9420010D9420010D9420010D9420010D9420010D9420010D9420010F
:2001E0000D9420010D9420010D9420010D9420010D94200111241FBECFEFDFE3DEBFCDBF7A
:2002000001E00CBF18BE19BE1ABE1BBE10E2A0E0B0E2EEEBF9E002E00BBF02C007900D927A
:20022000A230B107D9F71BBE12E2A2E0B0E201C01D92AA30B107E1F70F94F2030D94DD048F
:200240000D9400000F931F930F921F92FB010A010091CF0100780038D9F38093CA010DE99F
:2002600000933400E8951F900F901F910F910895E0E0F0E00994089580910020882319F44C
:200280008091A1080CC0813019F48091A10907C0823019F020E030E00BC08091B109282FE0
:2002A00030E085E0369527958A95E1F721703070C901089590910020992319F48093A008EE
:2002C0000895913019F48093A0090895923011F48093B00908951F93182F0F943C01892B9D
:2002E000E1F3812F0F945A011F9108951F93982F82958F708A3018F0282F295A02C0282FEB
:20030000205D892F8F708A3018F0182F195A02C0182F105D822F0F946B01812F0F946B0138
:200320001F91089580910020882319F48091A1080CC0813019F48091A10907C0823019F006
:2003400020E030E00AC08091B109282F332727FD30952227330F221F3327C90108958091C0
:200360000020882319F48091A0080895813019F48091A0090895823011F080E00895809179
:20038000B00908950F949201892BE1F30F94AF0108951F930F94C201182F0F946B011136A4
:2003A00010F0175503C0103308F01053812F1F9108951F930F94C901182F0F94C9011295F9
:2003C000107F810F1F9108951F93182F03C00F94C20111501123D9F71F9108951F93182FE4
:2003E0000F94C201803251F484E10F946B01812F0F946B0180E10F946B010AC08091022000
:200400008F5F80930220853019F4E0E0F0E009941F9108950F94C201803239F484E10F9430
:200420006B0180E10F946B010895809102208F5F80930220853019F4E0E0F0E00994089561
:2004400020E43FE107C0F9013197F1F761507040804090406115710581059105A1F70895D9
:200460008FEF8093B000E0E8F6E098E3908B808384830895A0E8B6E09FEF40E45FE11DC073
:2004800017969C93179720E030E003C0FA013197F1F72F5F3F4F293C3105C1F717969C9309
:2004A000179720E030E003C0FA013197F1F72F5F3F4F293C3105C1F78150882309F7089588
:2004C000CF92DF92EF92FF920F931F93CF93DF9381E090E08093032090930420F8940091A5
:2004E000072210910822C0910520D09106201016110694F5E12C3EEFF32EEC22FD22CE15DA
:20050000DF0531F482E2BE0140E050E00F94220182E00030180710F000E012E027E0C22E1F
:2005200020E2D22EF601419151916F0183E2BE010F9422012296025010401016110694F396
:20054000C70180509E4FC817D90730F084E2B70140E050E00F942201DF91CF911F910F91E3
:20056000FF90EF90DF90CF900895CF93DF93EC01209105203091062080910320909104200B
:20058000892B79F0B90160707E7F2617370749F084E240E050E00F94220110920320109220
:2005A0000420C033D105F9F0C134D105B1F40F94C201803811F482E003C0813821F481E07E
:2005C0000F94EE010CC1823811F480E1F9CF883911F483E0F5CF80E0F3CFC234D10531F4D4
:2005E00084E10F94E4010F940A02F9C0C035D105D1F3C235D105B9F3C135D10569F40F94D2
:200600000A0280E49FE1FC013197F1F7FC013197F1F70197F1F7E0C0C535D10549F40F94C0
:20062000C201809305200F94C20180930620DBCFC436D10509F05DC00F94C20180930822ED
:200640000F94C20180930722809109228E7F809309220F94C201853429F480910922816018
:2006600080930922C0E0D0E007C00F94C201FE01E95FFF4D808321968091072290910822ED
:20068000C817D90790F30F94C201803209F09DC08091092280FF29C0809105209091062089
:2006A000880F991F8093052090930620C0E0D0E014C0FE01E95FFF4D809105209091062036
:2006C00060810F94BA04809105209091062001968093052090930620219680910722909131
:2006E0000822C817D90728F302C00F94600284E166C0C437D10509F051C00F94C201809350
:2007000008220F94C201809307220F94C20190910922853411F4916001C09E7F9093092280
:200720000F94C201803209F05AC084E10F946B01C0E0D0E02BC08091092280FF07C080914C
:200740000520909106200F94AA0414C0E0910520F091062081FD02C084910CC0CF01A0E05A
:20076000B0E080509040AF4FBF4F0BB6ABBFFC0187910BBE0F946B018091052090910620A8
:200780000196809305209093062021968091072290910822C817D90770F213C0C537D1053F
:2007A000F1F40F94C201803281F484E10F946B018EE10F946B0187E90F946B018CE40F9443
:2007C0006B0180E10F946B010AC0809102208F5F80930220853019F4E0E0F0E00994DF91BE
:2007E000CF910895EF92FF920F931F930000809150008260809350008091510081FFFCCF43
:2008000080914000887F8160E0E4F0E008ED04BF80831FEF1093B00050E8E52E56E0F52E4B
:2008200008E3F701008B10938006148385E00F943A021093B000E0EAF6E0008B8091A00611
:200840008E7F8093A0068091A406816084838091A0068D7F8093A0068091A406826084830F
:200860008091A0068B7F8093A0068091A406846084838091A006877F8093A0068091A40627
:200880008860848380EFF70184838091A8068095806F84838091A80680FF14C08091A80660
:2008A00081FD02C081E00FC08091A80682FD02C082E009C08091A80683FDE7CFE0E0F0E018
:2008C0000994E3CF80E080930020E0E4F6E034E0328328E02183E0EAF8E08FEC8683178268
:2008E0008091A408806184838091A4088860848393E09583A0E6B6E012963C931297119639
:200900002C931197E0EAF9E021E2268317828091A409806184838091A4098860848395831D
:2009200080E412968C93129780E811968C93E0EBF9E0268317828091B40980618483809108
:20094000B4098860848395830F94C20190E00F94B502FACF03D0808199270895E0ECF1E00C
:20096000378537FDFDCF348538603487FC01E050F04F0895262FE0ECF1E0378537FDFDCFF8
:200980003485377F3487378531FF09C036E3328738ED34BF31E03387378537FDFDCF33E3F1
:2009A0003287808391831282248325E3228728ED31E024BF338701960895F894FFCFFF002B
:2009C000FFFFFFFFFFFFFFFFFFFFFFFFFFFFFFFFFFFFFFFFFFFFFFFFFFFFFFFFFFFFFFFF37
:2009E000FFFFFFFFFFFFFFFFFFFFFFFFFFFFFFFFFFFFFFFFFFFFFFFFFFFFFFFFFFFFFFFF17
:200A0000FFFFFFFFFFFFFFFFFFFFFFFFFFFFFFFFFFFFFFFFFFFFFFFFFFFFFFFFFFFFFFFFF6
:200A2000FFFFFFFFFFFFFFFFFFFFFFFFFFFFFFFFFFFFFFFFFFFFFFFFFFFFFFFFFFFFFFFFD6
:00000001FF
